{
  "contractName": "AutomaticExecutor",
  "abi": [
    {
      "inputs": [
        {
          "internalType": "address",
          "name": "timerAddress",
          "type": "address"
        }
      ],
      "stateMutability": "nonpayable",
      "type": "constructor"
    },
    {
      "anonymous": false,
      "inputs": [
        {
          "indexed": true,
          "internalType": "address",
          "name": "previousOwner",
          "type": "address"
        },
        {
          "indexed": true,
          "internalType": "address",
          "name": "newOwner",
          "type": "address"
        }
      ],
      "name": "OwnershipTransferred",
      "type": "event"
    },
    {
      "inputs": [],
      "name": "contratoOriginal",
      "outputs": [
        {
          "internalType": "contract Contracts",
          "name": "",
          "type": "address"
        }
      ],
      "stateMutability": "view",
      "type": "function"
    },
    {
      "inputs": [],
      "name": "owner",
      "outputs": [
        {
          "internalType": "address",
          "name": "",
          "type": "address"
        }
      ],
      "stateMutability": "view",
      "type": "function"
    },
    {
      "inputs": [],
      "name": "renounceOwnership",
      "outputs": [],
      "stateMutability": "nonpayable",
      "type": "function"
    },
    {
      "inputs": [
        {
          "internalType": "address",
          "name": "newOwner",
          "type": "address"
        }
      ],
      "name": "transferOwnership",
      "outputs": [],
      "stateMutability": "nonpayable",
      "type": "function"
    },
    {
      "inputs": [
        {
          "internalType": "uint256",
          "name": "interval",
          "type": "uint256"
        }
      ],
      "name": "setTimerInterval",
      "outputs": [],
      "stateMutability": "nonpayable",
      "type": "function"
    },
    {
      "inputs": [],
      "name": "startAutomaticExecution",
      "outputs": [],
      "stateMutability": "nonpayable",
      "type": "function"
    },
    {
      "inputs": [],
      "name": "checkAndExecute",
      "outputs": [],
      "stateMutability": "nonpayable",
      "type": "function"
    }
  ],
  "bytecode": "0x60806040526201518060045534801561001757600080fd5b50604051610ab7380380610ab7833981810160405281019061003991906101d6565b61005561004a6100a760201b60201c565b6100af60201b60201c565b80600260006101000a81548173ffffffffffffffffffffffffffffffffffffffff021916908373ffffffffffffffffffffffffffffffffffffffff160217905550600160036000018190555050610203565b600033905090565b60008060009054906101000a900473ffffffffffffffffffffffffffffffffffffffff169050816000806101000a81548173ffffffffffffffffffffffffffffffffffffffff021916908373ffffffffffffffffffffffffffffffffffffffff1602179055508173ffffffffffffffffffffffffffffffffffffffff168173ffffffffffffffffffffffffffffffffffffffff167f8be0079c531659141344cd1fd0a4f28419497f9722a3daafe3b4186f6b6457e060405160405180910390a35050565b600080fd5b600073ffffffffffffffffffffffffffffffffffffffff82169050919050565b60006101a382610178565b9050919050565b6101b381610198565b81146101be57600080fd5b50565b6000815190506101d0816101aa565b92915050565b6000602082840312156101ec576101eb610173565b5b60006101fa848285016101c1565b91505092915050565b6108a5806102126000396000f3fe608060405234801561001057600080fd5b506004361061007d5760003560e01c80638da5cb5b1161005b5780638da5cb5b146100b4578063de17553e146100d2578063e661f5fa146100dc578063f2fde38b146100f85761007d565b8063715018a61461008257806374d7c4dd1461008c5780638127b07114610096575b600080fd5b61008a610114565b005b610094610128565b005b61009e6101c1565b6040516100ab91906105b9565b60405180910390f35b6100bc6101e7565b6040516100c991906105f5565b60405180910390f35b6100da610210565b005b6100f660048036038101906100f1919061064b565b61035b565b005b610112600480360381019061010d91906106a4565b61036d565b005b61011c6103f0565b610126600061046e565b565b6101306103f0565b600260009054906101000a900473ffffffffffffffffffffffffffffffffffffffff1673ffffffffffffffffffffffffffffffffffffffff16636cf331fa6004546040518263ffffffff1660e01b815260040161018d91906106e0565b600060405180830381600087803b1580156101a757600080fd5b505af11580156101bb573d6000803e3d6000fd5b50505050565b600160009054906101000a900473ffffffffffffffffffffffffffffffffffffffff1681565b60008060009054906101000a900473ffffffffffffffffffffffffffffffffffffffff16905090565b6102186103f0565b6000600260009054906101000a900473ffffffffffffffffffffffffffffffffffffffff1673ffffffffffffffffffffffffffffffffffffffff1663fe0d94c16003600001546040518263ffffffff1660e01b815260040161027a91906106e0565b6020604051808303816000875af1158015610299573d6000803e3d6000fd5b505050506040513d601f19601f820116820180604052508101906102bd9190610733565b9050801561035857600160009054906101000a900473ffffffffffffffffffffffffffffffffffffffff1673ffffffffffffffffffffffffffffffffffffffff166357c859da6003600001546040518263ffffffff1660e01b815260040161032591906106e0565b600060405180830381600087803b15801561033f57600080fd5b505af1158015610353573d6000803e3d6000fd5b505050505b50565b6103636103f0565b8060048190555050565b6103756103f0565b600073ffffffffffffffffffffffffffffffffffffffff168173ffffffffffffffffffffffffffffffffffffffff16036103e4576040517f08c379a00000000000000000000000000000000000000000000000000000000081526004016103db906107e3565b60405180910390fd5b6103ed8161046e565b50565b6103f8610532565b73ffffffffffffffffffffffffffffffffffffffff166104166101e7565b73ffffffffffffffffffffffffffffffffffffffff161461046c576040517f08c379a00000000000000000000000000000000000000000000000000000000081526004016104639061084f565b60405180910390fd5b565b60008060009054906101000a900473ffffffffffffffffffffffffffffffffffffffff169050816000806101000a81548173ffffffffffffffffffffffffffffffffffffffff021916908373ffffffffffffffffffffffffffffffffffffffff1602179055508173ffffffffffffffffffffffffffffffffffffffff168173ffffffffffffffffffffffffffffffffffffffff167f8be0079c531659141344cd1fd0a4f28419497f9722a3daafe3b4186f6b6457e060405160405180910390a35050565b600033905090565b600073ffffffffffffffffffffffffffffffffffffffff82169050919050565b6000819050919050565b600061057f61057a6105758461053a565b61055a565b61053a565b9050919050565b600061059182610564565b9050919050565b60006105a382610586565b9050919050565b6105b381610598565b82525050565b60006020820190506105ce60008301846105aa565b92915050565b60006105df8261053a565b9050919050565b6105ef816105d4565b82525050565b600060208201905061060a60008301846105e6565b92915050565b600080fd5b6000819050919050565b61062881610615565b811461063357600080fd5b50565b6000813590506106458161061f565b92915050565b60006020828403121561066157610660610610565b5b600061066f84828501610636565b91505092915050565b610681816105d4565b811461068c57600080fd5b50565b60008135905061069e81610678565b92915050565b6000602082840312156106ba576106b9610610565b5b60006106c88482850161068f565b91505092915050565b6106da81610615565b82525050565b60006020820190506106f560008301846106d1565b92915050565b60008115159050919050565b610710816106fb565b811461071b57600080fd5b50565b60008151905061072d81610707565b92915050565b60006020828403121561074957610748610610565b5b60006107578482850161071e565b91505092915050565b600082825260208201905092915050565b7f4f776e61626c653a206e6577206f776e657220697320746865207a65726f206160008201527f6464726573730000000000000000000000000000000000000000000000000000602082015250565b60006107cd602683610760565b91506107d882610771565b604082019050919050565b600060208201905081810360008301526107fc816107c0565b9050919050565b7f4f776e61626c653a2063616c6c6572206973206e6f7420746865206f776e6572600082015250565b6000610839602083610760565b915061084482610803565b602082019050919050565b600060208201905081810360008301526108688161082c565b905091905056fea26469706673582212203609ce54acd1194b576c4134ac2262e5a5d0c1de9f0efc21716697633b75614764736f6c63430008110033",
  "immutableReferences": {},
  "source": "// SPDX-License-Identifier: MIT\npragma solidity ^0.8.0;\n\nimport \"@openzeppelin/contracts/access/Ownable.sol\";\nimport \"@openzeppelin/contracts/utils/Counters.sol\";\n\nimport \"./Contracts.sol\";\n\ncontract Timer {\n    using Counters for Counters.Counter;\n    Counters.Counter private _timerId;\n\n    mapping(uint256 => uint256) private _executions;\n\n    function startTimer(uint256 interval) external {\n        _timerId.increment();\n        _executions[_timerId.current()] = block.timestamp + interval;\n    }\n\n    function execute(uint256 timerId) external returns (bool) {\n        require(_executions[timerId] > 0, \"Timer not found or expired\");\n        if (block.timestamp >= _executions[timerId]) {\n            _executions[timerId] = 0;\n            return true;\n        }\n        return false;\n    }\n}\n\n\ncontract AutomaticExecutor is Ownable {\n\n    Contracts public contratoOriginal;\n\n    Timer private _timer;\n    Counters.Counter private _timerId;\n\n    uint256 private _interval = 1 days; // Intervalo de 1 da\n\n    constructor(address timerAddress) {\n        _timer = Timer(timerAddress);\n        _timerId._value = 1; // Inicializar el contador _timerId en 0\n    }\n\n    function setTimerInterval(uint256 interval) external onlyOwner {\n        _interval = interval;\n    }\n\n    function startAutomaticExecution() external onlyOwner {\n        _timer.startTimer(_interval);\n    }\n\n    function checkAndExecute() external onlyOwner {\n        bool executed = _timer.execute(_timerId._value);\n        if (executed) {\n            contratoOriginal.compareContractDateAndExecute(_timerId._value);\n        }\n    }\n}\n\n\n",
  "sourcePath": "/home/fidelsalazar/Documentos/TesisDaniela/csolutionextjs/contracts/TimedFunctionCaller.sol",
  "compiler": {
    "name": "solc",
    "version": "0.8.17+commit.8df45f5f.Emscripten.clang"
  },
  "schemaVersion": "3.4.15",
  "updatedAt": "2023-08-31T17:09:42.406Z",
  "devdoc": {
    "kind": "dev",
    "methods": {
      "owner()": {
        "details": "Returns the address of the current owner."
      },
      "renounceOwnership()": {
        "details": "Leaves the contract without owner. It will not be possible to call `onlyOwner` functions. Can only be called by the current owner. NOTE: Renouncing ownership will leave the contract without an owner, thereby disabling any functionality that is only available to the owner."
      },
      "transferOwnership(address)": {
        "details": "Transfers ownership of the contract to a new account (`newOwner`). Can only be called by the current owner."
      }
    },
    "version": 1
  },
  "userdoc": {
    "kind": "user",
    "methods": {},
    "version": 1
  }
}