{
  "contractName": "Contracts",
  "abi": [
    {
      "inputs": [
        {
          "internalType": "address",
          "name": "_pagoContratoAddress",
          "type": "address"
        }
      ],
      "stateMutability": "nonpayable",
      "type": "constructor"
    },
    {
      "anonymous": false,
      "inputs": [
        {
          "indexed": false,
          "internalType": "string",
          "name": "message",
          "type": "string"
        }
      ],
      "name": "ContractConfirmed",
      "type": "event"
    },
    {
      "anonymous": false,
      "inputs": [
        {
          "indexed": false,
          "internalType": "uint256",
          "name": "id",
          "type": "uint256"
        },
        {
          "indexed": false,
          "internalType": "address",
          "name": "contratante",
          "type": "address"
        },
        {
          "indexed": false,
          "internalType": "address",
          "name": "contratado",
          "type": "address"
        },
        {
          "indexed": false,
          "internalType": "address",
          "name": "garante",
          "type": "address"
        },
        {
          "indexed": false,
          "internalType": "address",
          "name": "garante1",
          "type": "address"
        },
        {
          "indexed": false,
          "internalType": "address",
          "name": "garante2",
          "type": "address"
        },
        {
          "indexed": false,
          "internalType": "string",
          "name": "descripcion",
          "type": "string"
        },
        {
          "indexed": false,
          "internalType": "uint256",
          "name": "date",
          "type": "uint256"
        },
        {
          "indexed": false,
          "internalType": "uint256",
          "name": "monto",
          "type": "uint256"
        },
        {
          "indexed": false,
          "internalType": "bool",
          "name": "done",
          "type": "bool"
        }
      ],
      "name": "ContractCreated",
      "type": "event"
    },
    {
      "anonymous": false,
      "inputs": [
        {
          "indexed": false,
          "internalType": "uint256",
          "name": "id",
          "type": "uint256"
        },
        {
          "indexed": false,
          "internalType": "bool",
          "name": "done",
          "type": "bool"
        }
      ],
      "name": "ContractDone",
      "type": "event"
    },
    {
      "anonymous": false,
      "inputs": [
        {
          "indexed": false,
          "internalType": "uint256",
          "name": "id",
          "type": "uint256"
        },
        {
          "indexed": false,
          "internalType": "string",
          "name": "descripcion",
          "type": "string"
        },
        {
          "indexed": false,
          "internalType": "uint256",
          "name": "monto",
          "type": "uint256"
        },
        {
          "indexed": false,
          "internalType": "address",
          "name": "contratado",
          "type": "address"
        }
      ],
      "name": "ContractExecuted",
      "type": "event"
    },
    {
      "anonymous": false,
      "inputs": [
        {
          "indexed": false,
          "internalType": "uint256",
          "name": "id",
          "type": "uint256"
        }
      ],
      "name": "ContractFrozen",
      "type": "event"
    },
    {
      "anonymous": false,
      "inputs": [
        {
          "indexed": false,
          "internalType": "uint256",
          "name": "id",
          "type": "uint256"
        },
        {
          "indexed": false,
          "internalType": "string",
          "name": "descripcion",
          "type": "string"
        },
        {
          "indexed": false,
          "internalType": "uint256",
          "name": "monto",
          "type": "uint256"
        },
        {
          "indexed": false,
          "internalType": "address",
          "name": "contratante",
          "type": "address"
        }
      ],
      "name": "ContractReadyToExecute",
      "type": "event"
    },
    {
      "anonymous": false,
      "inputs": [
        {
          "indexed": false,
          "internalType": "uint256",
          "name": "amount",
          "type": "uint256"
        },
        {
          "indexed": false,
          "internalType": "address",
          "name": "destination",
          "type": "address"
        }
      ],
      "name": "TransferToDestinyRequested",
      "type": "event"
    },
    {
      "inputs": [],
      "name": "confirmationThreshold",
      "outputs": [
        {
          "internalType": "uint256",
          "name": "",
          "type": "uint256"
        }
      ],
      "stateMutability": "view",
      "type": "function"
    },
    {
      "inputs": [
        {
          "internalType": "address",
          "name": "",
          "type": "address"
        },
        {
          "internalType": "uint256",
          "name": "",
          "type": "uint256"
        }
      ],
      "name": "contracts",
      "outputs": [
        {
          "internalType": "uint256",
          "name": "id",
          "type": "uint256"
        },
        {
          "internalType": "address",
          "name": "contratante",
          "type": "address"
        },
        {
          "internalType": "address",
          "name": "contratado",
          "type": "address"
        },
        {
          "internalType": "address",
          "name": "garante",
          "type": "address"
        },
        {
          "internalType": "address",
          "name": "garante1",
          "type": "address"
        },
        {
          "internalType": "address",
          "name": "garante2",
          "type": "address"
        },
        {
          "internalType": "string",
          "name": "descripcion",
          "type": "string"
        },
        {
          "internalType": "uint256",
          "name": "date",
          "type": "uint256"
        },
        {
          "internalType": "uint256",
          "name": "monto",
          "type": "uint256"
        },
        {
          "internalType": "bool",
          "name": "done",
          "type": "bool"
        }
      ],
      "stateMutability": "view",
      "type": "function"
    },
    {
      "inputs": [
        {
          "internalType": "address",
          "name": "",
          "type": "address"
        }
      ],
      "name": "contractsCount",
      "outputs": [
        {
          "internalType": "uint256",
          "name": "",
          "type": "uint256"
        }
      ],
      "stateMutability": "view",
      "type": "function"
    },
    {
      "inputs": [],
      "name": "freezeTime",
      "outputs": [
        {
          "internalType": "uint256",
          "name": "",
          "type": "uint256"
        }
      ],
      "stateMutability": "view",
      "type": "function"
    },
    {
      "inputs": [],
      "name": "gasPrice",
      "outputs": [
        {
          "internalType": "uint256",
          "name": "",
          "type": "uint256"
        }
      ],
      "stateMutability": "view",
      "type": "function"
    },
    {
      "inputs": [
        {
          "internalType": "address",
          "name": "_contratante",
          "type": "address"
        },
        {
          "internalType": "address",
          "name": "_contratado",
          "type": "address"
        },
        {
          "internalType": "address",
          "name": "_garante",
          "type": "address"
        },
        {
          "internalType": "address",
          "name": "_garante1",
          "type": "address"
        },
        {
          "internalType": "address",
          "name": "_garante2",
          "type": "address"
        },
        {
          "internalType": "string",
          "name": "_descripcion",
          "type": "string"
        },
        {
          "internalType": "uint256",
          "name": "_date",
          "type": "uint256"
        },
        {
          "internalType": "uint256",
          "name": "_monto",
          "type": "uint256"
        }
      ],
      "name": "createContract",
      "outputs": [],
      "stateMutability": "nonpayable",
      "type": "function"
    },
    {
      "inputs": [
        {
          "internalType": "uint256",
          "name": "_id",
          "type": "uint256"
        }
      ],
      "name": "toggleDone",
      "outputs": [],
      "stateMutability": "nonpayable",
      "type": "function"
    },
    {
      "inputs": [
        {
          "internalType": "uint256",
          "name": "_id",
          "type": "uint256"
        }
      ],
      "name": "confirmContract",
      "outputs": [],
      "stateMutability": "nonpayable",
      "type": "function"
    },
    {
      "inputs": [
        {
          "internalType": "uint256",
          "name": "_id",
          "type": "uint256"
        }
      ],
      "name": "isContractFrozen",
      "outputs": [
        {
          "internalType": "bool",
          "name": "",
          "type": "bool"
        }
      ],
      "stateMutability": "view",
      "type": "function"
    },
    {
      "inputs": [
        {
          "internalType": "uint256",
          "name": "_id",
          "type": "uint256"
        }
      ],
      "name": "compareContractDateAndExecute",
      "outputs": [],
      "stateMutability": "nonpayable",
      "type": "function"
    },
    {
      "inputs": [],
      "name": "getContratante",
      "outputs": [
        {
          "internalType": "address",
          "name": "",
          "type": "address"
        }
      ],
      "stateMutability": "view",
      "type": "function"
    },
    {
      "inputs": [],
      "name": "getContratado",
      "outputs": [
        {
          "internalType": "address",
          "name": "",
          "type": "address"
        }
      ],
      "stateMutability": "view",
      "type": "function"
    },
    {
      "inputs": [
        {
          "internalType": "uint256",
          "name": "_id",
          "type": "uint256"
        }
      ],
      "name": "getMonto",
      "outputs": [
        {
          "internalType": "uint256",
          "name": "",
          "type": "uint256"
        }
      ],
      "stateMutability": "view",
      "type": "function"
    },
    {
      "inputs": [
        {
          "internalType": "uint256",
          "name": "_id",
          "type": "uint256"
        }
      ],
      "name": "getDate",
      "outputs": [
        {
          "internalType": "uint256",
          "name": "",
          "type": "uint256"
        }
      ],
      "stateMutability": "view",
      "type": "function"
    },
    {
      "inputs": [
        {
          "internalType": "address",
          "name": "_user",
          "type": "address"
        },
        {
          "internalType": "uint256",
          "name": "_index",
          "type": "uint256"
        }
      ],
      "name": "getContractId",
      "outputs": [
        {
          "internalType": "uint256",
          "name": "",
          "type": "uint256"
        }
      ],
      "stateMutability": "view",
      "type": "function"
    }
  ],
  "bytecode": "0x60806040523480156200001157600080fd5b5060405162002ce238038062002ce283398181016040528101906200003791906200053a565b80600160006101000a81548173ffffffffffffffffffffffffffffffffffffffff021916908373ffffffffffffffffffffffffffffffffffffffff1602179055506200011273f67937fef2855f52043bc7132bc197c5532ac0fe73a768edbe5be6432f5b93dfc6c06207ed50661acd73437f452c11b3ff5c25fce320ace475926a42ccea73300f10877b32b94ddc5a43e506a8182a1c58cd10737a9b1eb9c7af756ce7a7a3f337e437db7813c04160405180606001604052806038815260200162002caa603891396361f9ef0060006200011960201b60201c565b5062000ace565b6000600360003373ffffffffffffffffffffffffffffffffffffffff1673ffffffffffffffffffffffffffffffffffffffff1681526020019081526020016000205490506040518061014001604052808281526020018a73ffffffffffffffffffffffffffffffffffffffff1681526020018973ffffffffffffffffffffffffffffffffffffffff1681526020018873ffffffffffffffffffffffffffffffffffffffff1681526020018773ffffffffffffffffffffffffffffffffffffffff1681526020018673ffffffffffffffffffffffffffffffffffffffff16815260200185815260200184815260200183815260200160001515815250600260003373ffffffffffffffffffffffffffffffffffffffff1673ffffffffffffffffffffffffffffffffffffffff16815260200190815260200160002060008381526020019081526020016000206000820151816000015560208201518160010160006101000a81548173ffffffffffffffffffffffffffffffffffffffff021916908373ffffffffffffffffffffffffffffffffffffffff16021790555060408201518160020160006101000a81548173ffffffffffffffffffffffffffffffffffffffff021916908373ffffffffffffffffffffffffffffffffffffffff16021790555060608201518160030160006101000a81548173ffffffffffffffffffffffffffffffffffffffff021916908373ffffffffffffffffffffffffffffffffffffffff16021790555060808201518160040160006101000a81548173ffffffffffffffffffffffffffffffffffffffff021916908373ffffffffffffffffffffffffffffffffffffffff16021790555060a08201518160050160006101000a81548173ffffffffffffffffffffffffffffffffffffffff021916908373ffffffffffffffffffffffffffffffffffffffff16021790555060c0820151816006019081620003e89190620007e6565b5060e0820151816007015561010082015181600801556101208201518160090160006101000a81548160ff0219169083151502179055509050507fc77ce98667fb93dc4a00a82756accc8fdb793f181e9468a09593e8ba86146ab6818a8a8a8a8a8a8a8a6000604051620004669a999897969594939291906200099b565b60405180910390a1600360003373ffffffffffffffffffffffffffffffffffffffff1673ffffffffffffffffffffffffffffffffffffffff1681526020019081526020016000206000815480929190620004c09062000a81565b9190505550505050505050505050565b600080fd5b600073ffffffffffffffffffffffffffffffffffffffff82169050919050565b60006200050282620004d5565b9050919050565b6200051481620004f5565b81146200052057600080fd5b50565b600081519050620005348162000509565b92915050565b600060208284031215620005535762000552620004d0565b5b6000620005638482850162000523565b91505092915050565b600081519050919050565b7f4e487b7100000000000000000000000000000000000000000000000000000000600052604160045260246000fd5b7f4e487b7100000000000000000000000000000000000000000000000000000000600052602260045260246000fd5b60006002820490506001821680620005ee57607f821691505b602082108103620006045762000603620005a6565b5b50919050565b60008190508160005260206000209050919050565b60006020601f8301049050919050565b600082821b905092915050565b6000600883026200066e7fffffffffffffffffffffffffffffffffffffffffffffffffffffffffffffffff826200062f565b6200067a86836200062f565b95508019841693508086168417925050509392505050565b6000819050919050565b6000819050919050565b6000620006c7620006c1620006bb8462000692565b6200069c565b62000692565b9050919050565b6000819050919050565b620006e383620006a6565b620006fb620006f282620006ce565b8484546200063c565b825550505050565b600090565b6200071262000703565b6200071f818484620006d8565b505050565b5b8181101562000747576200073b60008262000708565b60018101905062000725565b5050565b601f821115620007965762000760816200060a565b6200076b846200061f565b810160208510156200077b578190505b620007936200078a856200061f565b83018262000724565b50505b505050565b600082821c905092915050565b6000620007bb600019846008026200079b565b1980831691505092915050565b6000620007d68383620007a8565b9150826002028217905092915050565b620007f1826200056c565b67ffffffffffffffff8111156200080d576200080c62000577565b5b620008198254620005d5565b620008268282856200074b565b600060209050601f8311600181146200085e576000841562000849578287015190505b620008558582620007c8565b865550620008c5565b601f1984166200086e866200060a565b60005b82811015620008985784890151825560018201915060208501945060208101905062000871565b86831015620008b85784890151620008b4601f891682620007a8565b8355505b6001600288020188555050505b505050505050565b620008d88162000692565b82525050565b620008e981620004f5565b82525050565b600082825260208201905092915050565b60005b838110156200092057808201518184015260208101905062000903565b60008484015250505050565b6000601f19601f8301169050919050565b60006200094a826200056c565b620009568185620008ef565b93506200096881856020860162000900565b62000973816200092c565b840191505092915050565b60008115159050919050565b62000995816200097e565b82525050565b600061014082019050620009b3600083018d620008cd565b620009c2602083018c620008de565b620009d1604083018b620008de565b620009e0606083018a620008de565b620009ef6080830189620008de565b620009fe60a0830188620008de565b81810360c083015262000a1281876200093d565b905062000a2360e0830186620008cd565b62000a33610100830185620008cd565b62000a436101208301846200098a565b9b9a5050505050505050505050565b7f4e487b7100000000000000000000000000000000000000000000000000000000600052601160045260246000fd5b600062000a8e8262000692565b91507fffffffffffffffffffffffffffffffffffffffffffffffffffffffffffffffff820362000ac35762000ac262000a52565b5b600182019050919050565b6121cc8062000ade6000396000f3fe608060405234801561001057600080fd5b50600436106100f55760003560e01c8063d264dd2711610097578063f491f6c611610066578063f491f6c61461029f578063fceb17eb146102cf578063fd7e1bee146102ed578063fe173b971461030b576100f5565b8063d264dd27146101fc578063d81ef7391461022c578063eaf1cdfc14610248578063ed23f8c314610266576100f5565b806379754129116100d357806379754129146101765780637cff479514610194578063818a428c146101b05780639de67749146101e0576100f5565b80632b57298b146100fa57806357c859da1461012a5780637749323714610146575b600080fd5b610114600480360381019061010f91906116eb565b610329565b6040516101219190611727565b60405180910390f35b610144600480360381019061013f91906116eb565b610386565b005b610160600480360381019061015b91906116eb565b610464565b60405161016d9190611727565b60405180910390f35b61017e6104c1565b60405161018b9190611783565b60405180910390f35b6101ae60048036038101906101a991906116eb565b61053c565b005b6101ca60048036038101906101c591906116eb565b610a14565b6040516101d791906117b9565b60405180910390f35b6101fa60048036038101906101f59190611946565b610a94565b005b61021660048036038101906102119190611a18565b610e45565b6040516102239190611727565b60405180910390f35b610246600480360381019061024191906116eb565b610f24565b005b610250611463565b60405161025d9190611783565b60405180910390f35b610280600480360381019061027b9190611a18565b6114de565b6040516102969a99989796959493929190611ad7565b60405180910390f35b6102b960048036038101906102b49190611b7a565b611674565b6040516102c69190611727565b60405180910390f35b6102d761168c565b6040516102e49190611727565b60405180910390f35b6102f5611691565b6040516103029190611727565b60405180910390f35b610313611698565b6040516103209190611727565b60405180910390f35b6000600260003373ffffffffffffffffffffffffffffffffffffffff1673ffffffffffffffffffffffffffffffffffffffff1681526020019081526020016000206000838152602001908152602001600020600701549050919050565b6000600260003373ffffffffffffffffffffffffffffffffffffffff1673ffffffffffffffffffffffffffffffffffffffff1681526020019081526020016000206000838152602001908152602001600020600701549050600042905080821480156104505750600260003373ffffffffffffffffffffffffffffffffffffffff1673ffffffffffffffffffffffffffffffffffffffff168152602001908152602001600020600084815260200190815260200160002060090160009054906101000a900460ff16155b1561045f5761045e8361053c565b5b505050565b6000600260003373ffffffffffffffffffffffffffffffffffffffff1673ffffffffffffffffffffffffffffffffffffffff1681526020019081526020016000206000838152602001908152602001600020600801549050919050565b6000600260003373ffffffffffffffffffffffffffffffffffffffff1673ffffffffffffffffffffffffffffffffffffffff168152602001908152602001600020600080815260200190815260200160002060010160009054906101000a900473ffffffffffffffffffffffffffffffffffffffff16905090565b600015156004600083815260200190815260200160002060003373ffffffffffffffffffffffffffffffffffffffff1673ffffffffffffffffffffffffffffffffffffffff16815260200190815260200160002060009054906101000a900460ff161515146105e0576040517f08c379a00000000000000000000000000000000000000000000000000000000081526004016105d790611bf3565b60405180910390fd5b60016004600083815260200190815260200160002060003373ffffffffffffffffffffffffffffffffffffffff1673ffffffffffffffffffffffffffffffffffffffff16815260200190815260200160002060006101000a81548160ff0219169083151502179055506000600260003373ffffffffffffffffffffffffffffffffffffffff1673ffffffffffffffffffffffffffffffffffffffff168152602001908152602001600020600083815260200190815260200160002090506000805b600581101561082c5760008082036106df578360010160009054906101000a900473ffffffffffffffffffffffffffffffffffffffff1690506107a6565b60018203610713578360020160009054906101000a900473ffffffffffffffffffffffffffffffffffffffff1690506107a5565b60028203610747578360030160009054906101000a900473ffffffffffffffffffffffffffffffffffffffff1690506107a4565b6003820361077b578360040160009054906101000a900473ffffffffffffffffffffffffffffffffffffffff1690506107a3565b8360050160009054906101000a900473ffffffffffffffffffffffffffffffffffffffff1690505b5b5b5b6004600086815260200190815260200160002060008273ffffffffffffffffffffffffffffffffffffffff1673ffffffffffffffffffffffffffffffffffffffff16815260200190815260200160002060009054906101000a900460ff161561081857828061081490611c42565b9350505b50808061082490611c42565b9150506106a1565b50600381106109245760008054906101000a900473ffffffffffffffffffffffffffffffffffffffff1673ffffffffffffffffffffffffffffffffffffffff1663d0c81d0883600801548460020160009054906101000a900473ffffffffffffffffffffffffffffffffffffffff166040518363ffffffff1660e01b81526004016108b8929190611c8a565b600060405180830381600087803b1580156108d257600080fd5b505af11580156108e6573d6000803e3d6000fd5b505050507f8008b448d48351365bb0cf1458f80e32bf691a92fe95daa8051b10be7a5506f160405161091790611d25565b60405180910390a1610a0f565b60008054906101000a900473ffffffffffffffffffffffffffffffffffffffff1673ffffffffffffffffffffffffffffffffffffffff1663d0c81d0883600801548460010160009054906101000a900473ffffffffffffffffffffffffffffffffffffffff166040518363ffffffff1660e01b81526004016109a7929190611c8a565b600060405180830381600087803b1580156109c157600080fd5b505af11580156109d5573d6000803e3d6000fd5b505050507f8008b448d48351365bb0cf1458f80e32bf691a92fe95daa8051b10be7a5506f1604051610a0690611ddd565b60405180910390a15b505050565b600080600260003373ffffffffffffffffffffffffffffffffffffffff1673ffffffffffffffffffffffffffffffffffffffff1681526020019081526020016000206000848152602001908152602001600020905080600701544210158015610a8c57508060090160009054906101000a900460ff16155b915050919050565b6000600360003373ffffffffffffffffffffffffffffffffffffffff1673ffffffffffffffffffffffffffffffffffffffff1681526020019081526020016000205490506040518061014001604052808281526020018a73ffffffffffffffffffffffffffffffffffffffff1681526020018973ffffffffffffffffffffffffffffffffffffffff1681526020018873ffffffffffffffffffffffffffffffffffffffff1681526020018773ffffffffffffffffffffffffffffffffffffffff1681526020018673ffffffffffffffffffffffffffffffffffffffff16815260200185815260200184815260200183815260200160001515815250600260003373ffffffffffffffffffffffffffffffffffffffff1673ffffffffffffffffffffffffffffffffffffffff16815260200190815260200160002060008381526020019081526020016000206000820151816000015560208201518160010160006101000a81548173ffffffffffffffffffffffffffffffffffffffff021916908373ffffffffffffffffffffffffffffffffffffffff16021790555060408201518160020160006101000a81548173ffffffffffffffffffffffffffffffffffffffff021916908373ffffffffffffffffffffffffffffffffffffffff16021790555060608201518160030160006101000a81548173ffffffffffffffffffffffffffffffffffffffff021916908373ffffffffffffffffffffffffffffffffffffffff16021790555060808201518160040160006101000a81548173ffffffffffffffffffffffffffffffffffffffff021916908373ffffffffffffffffffffffffffffffffffffffff16021790555060a08201518160050160006101000a81548173ffffffffffffffffffffffffffffffffffffffff021916908373ffffffffffffffffffffffffffffffffffffffff16021790555060c0820151816006019081610d619190612009565b5060e0820151816007015561010082015181600801556101208201518160090160006101000a81548160ff0219169083151502179055509050507fc77ce98667fb93dc4a00a82756accc8fdb793f181e9468a09593e8ba86146ab6818a8a8a8a8a8a8a8a6000604051610ddd9a99989796959493929190611ad7565b60405180910390a1600360003373ffffffffffffffffffffffffffffffffffffffff1673ffffffffffffffffffffffffffffffffffffffff1681526020019081526020016000206000815480929190610e3590611c42565b9190505550505050505050505050565b6000600360008473ffffffffffffffffffffffffffffffffffffffff1673ffffffffffffffffffffffffffffffffffffffff168152602001908152602001600020548210610ec8576040517f08c379a0000000000000000000000000000000000000000000000000000000008152600401610ebf9061214d565b60405180910390fd5b600260008473ffffffffffffffffffffffffffffffffffffffff1673ffffffffffffffffffffffffffffffffffffffff168152602001908152602001600020600083815260200190815260200160002060000154905092915050565b6000600260003373ffffffffffffffffffffffffffffffffffffffff1673ffffffffffffffffffffffffffffffffffffffff168152602001908152602001600020600083815260200190815260200160002060405180610140016040529081600082015481526020016001820160009054906101000a900473ffffffffffffffffffffffffffffffffffffffff1673ffffffffffffffffffffffffffffffffffffffff1673ffffffffffffffffffffffffffffffffffffffff1681526020016002820160009054906101000a900473ffffffffffffffffffffffffffffffffffffffff1673ffffffffffffffffffffffffffffffffffffffff1673ffffffffffffffffffffffffffffffffffffffff1681526020016003820160009054906101000a900473ffffffffffffffffffffffffffffffffffffffff1673ffffffffffffffffffffffffffffffffffffffff1673ffffffffffffffffffffffffffffffffffffffff1681526020016004820160009054906101000a900473ffffffffffffffffffffffffffffffffffffffff1673ffffffffffffffffffffffffffffffffffffffff1673ffffffffffffffffffffffffffffffffffffffff1681526020016005820160009054906101000a900473ffffffffffffffffffffffffffffffffffffffff1673ffffffffffffffffffffffffffffffffffffffff1673ffffffffffffffffffffffffffffffffffffffff16815260200160068201805461114a90611e2c565b80601f016020809104026020016040519081016040528092919081815260200182805461117690611e2c565b80156111c35780601f10611198576101008083540402835291602001916111c3565b820191906000526020600020905b8154815290600101906020018083116111a657829003601f168201915b5050505050815260200160078201548152602001600882015481526020016009820160009054906101000a900460ff1615151515815250509050806101200151158161012001901515908115158152505080600260003373ffffffffffffffffffffffffffffffffffffffff1673ffffffffffffffffffffffffffffffffffffffff16815260200190815260200160002060008481526020019081526020016000206000820151816000015560208201518160010160006101000a81548173ffffffffffffffffffffffffffffffffffffffff021916908373ffffffffffffffffffffffffffffffffffffffff16021790555060408201518160020160006101000a81548173ffffffffffffffffffffffffffffffffffffffff021916908373ffffffffffffffffffffffffffffffffffffffff16021790555060608201518160030160006101000a81548173ffffffffffffffffffffffffffffffffffffffff021916908373ffffffffffffffffffffffffffffffffffffffff16021790555060808201518160040160006101000a81548173ffffffffffffffffffffffffffffffffffffffff021916908373ffffffffffffffffffffffffffffffffffffffff16021790555060a08201518160050160006101000a81548173ffffffffffffffffffffffffffffffffffffffff021916908373ffffffffffffffffffffffffffffffffffffffff16021790555060c08201518160060190816113e79190612009565b5060e0820151816007015561010082015181600801556101208201518160090160006101000a81548160ff0219169083151502179055509050507f560ac3fb609472c4257be62c67528fd50d2c010b1ade58c63e3e82828d6229348282610120015160405161145792919061216d565b60405180910390a15050565b6000600260003373ffffffffffffffffffffffffffffffffffffffff1673ffffffffffffffffffffffffffffffffffffffff168152602001908152602001600020600080815260200190815260200160002060020160009054906101000a900473ffffffffffffffffffffffffffffffffffffffff16905090565b6002602052816000526040600020602052806000526040600020600091509150508060000154908060010160009054906101000a900473ffffffffffffffffffffffffffffffffffffffff16908060020160009054906101000a900473ffffffffffffffffffffffffffffffffffffffff16908060030160009054906101000a900473ffffffffffffffffffffffffffffffffffffffff16908060040160009054906101000a900473ffffffffffffffffffffffffffffffffffffffff16908060050160009054906101000a900473ffffffffffffffffffffffffffffffffffffffff16908060060180546115d290611e2c565b80601f01602080910402602001604051908101604052809291908181526020018280546115fe90611e2c565b801561164b5780601f106116205761010080835404028352916020019161164b565b820191906000526020600020905b81548152906001019060200180831161162e57829003601f168201915b5050505050908060070154908060080154908060090160009054906101000a900460ff1690508a565b60036020528060005260406000206000915090505481565b604b81565b6201518081565b6402540be40081565b6000604051905090565b600080fd5b600080fd5b6000819050919050565b6116c8816116b5565b81146116d357600080fd5b50565b6000813590506116e5816116bf565b92915050565b600060208284031215611701576117006116ab565b5b600061170f848285016116d6565b91505092915050565b611721816116b5565b82525050565b600060208201905061173c6000830184611718565b92915050565b600073ffffffffffffffffffffffffffffffffffffffff82169050919050565b600061176d82611742565b9050919050565b61177d81611762565b82525050565b60006020820190506117986000830184611774565b92915050565b60008115159050919050565b6117b38161179e565b82525050565b60006020820190506117ce60008301846117aa565b92915050565b6117dd81611762565b81146117e857600080fd5b50565b6000813590506117fa816117d4565b92915050565b600080fd5b600080fd5b6000601f19601f8301169050919050565b7f4e487b7100000000000000000000000000000000000000000000000000000000600052604160045260246000fd5b6118538261180a565b810181811067ffffffffffffffff821117156118725761187161181b565b5b80604052505050565b60006118856116a1565b9050611891828261184a565b919050565b600067ffffffffffffffff8211156118b1576118b061181b565b5b6118ba8261180a565b9050602081019050919050565b82818337600083830152505050565b60006118e96118e484611896565b61187b565b90508281526020810184848401111561190557611904611805565b5b6119108482856118c7565b509392505050565b600082601f83011261192d5761192c611800565b5b813561193d8482602086016118d6565b91505092915050565b600080600080600080600080610100898b031215611967576119666116ab565b5b60006119758b828c016117eb565b98505060206119868b828c016117eb565b97505060406119978b828c016117eb565b96505060606119a88b828c016117eb565b95505060806119b98b828c016117eb565b94505060a089013567ffffffffffffffff8111156119da576119d96116b0565b5b6119e68b828c01611918565b93505060c06119f78b828c016116d6565b92505060e0611a088b828c016116d6565b9150509295985092959890939650565b60008060408385031215611a2f57611a2e6116ab565b5b6000611a3d858286016117eb565b9250506020611a4e858286016116d6565b9150509250929050565b600081519050919050565b600082825260208201905092915050565b60005b83811015611a92578082015181840152602081019050611a77565b60008484015250505050565b6000611aa982611a58565b611ab38185611a63565b9350611ac3818560208601611a74565b611acc8161180a565b840191505092915050565b600061014082019050611aed600083018d611718565b611afa602083018c611774565b611b07604083018b611774565b611b14606083018a611774565b611b216080830189611774565b611b2e60a0830188611774565b81810360c0830152611b408187611a9e565b9050611b4f60e0830186611718565b611b5d610100830185611718565b611b6b6101208301846117aa565b9b9a5050505050505050505050565b600060208284031215611b9057611b8f6116ab565b5b6000611b9e848285016117eb565b91505092915050565b7f59612068617320636f6e6669726d61646f206573746520636f6e747261746f2e600082015250565b6000611bdd602083611a63565b9150611be882611ba7565b602082019050919050565b60006020820190508181036000830152611c0c81611bd0565b9050919050565b7f4e487b7100000000000000000000000000000000000000000000000000000000600052601160045260246000fd5b6000611c4d826116b5565b91507fffffffffffffffffffffffffffffffffffffffffffffffffffffffffffffffff8203611c7f57611c7e611c13565b5b600182019050919050565b6000604082019050611c9f6000830185611718565b611cac6020830184611774565b9392505050565b7f436f6e747261746f20636f6e6669726d61646f207920656a6563757461646f2060008201527f636f6e20657869746f2e00000000000000000000000000000000000000000000602082015250565b6000611d0f602a83611a63565b9150611d1a82611cb3565b604082019050919050565b60006020820190508181036000830152611d3e81611d02565b9050919050565b7f436f6e747261746f20636f6e6669726d61646f2c207065726f206e6f2073652060008201527f656a656375746f2064656269646f2061206c612066616c746120646520636f6e60208201527f6669726d6163696f6e657320737566696369656e7465732e0000000000000000604082015250565b6000611dc7605883611a63565b9150611dd282611d45565b606082019050919050565b60006020820190508181036000830152611df681611dba565b9050919050565b7f4e487b7100000000000000000000000000000000000000000000000000000000600052602260045260246000fd5b60006002820490506001821680611e4457607f821691505b602082108103611e5757611e56611dfd565b5b50919050565b60008190508160005260206000209050919050565b60006020601f8301049050919050565b600082821b905092915050565b600060088302611ebf7fffffffffffffffffffffffffffffffffffffffffffffffffffffffffffffffff82611e82565b611ec98683611e82565b95508019841693508086168417925050509392505050565b6000819050919050565b6000611f06611f01611efc846116b5565b611ee1565b6116b5565b9050919050565b6000819050919050565b611f2083611eeb565b611f34611f2c82611f0d565b848454611e8f565b825550505050565b600090565b611f49611f3c565b611f54818484611f17565b505050565b5b81811015611f7857611f6d600082611f41565b600181019050611f5a565b5050565b601f821115611fbd57611f8e81611e5d565b611f9784611e72565b81016020851015611fa6578190505b611fba611fb285611e72565b830182611f59565b50505b505050565b600082821c905092915050565b6000611fe060001984600802611fc2565b1980831691505092915050565b6000611ff98383611fcf565b9150826002028217905092915050565b61201282611a58565b67ffffffffffffffff81111561202b5761202a61181b565b5b6120358254611e2c565b612040828285611f7c565b600060209050601f8311600181146120735760008415612061578287015190505b61206b8582611fed565b8655506120d3565b601f19841661208186611e5d565b60005b828110156120a957848901518255600182019150602085019450602081019050612084565b868310156120c657848901516120c2601f891682611fcf565b8355505b6001600288020188555050505b505050505050565b7f496e6469636520646520636f6e747261746f2066756572612064652072616e6760008201527f6f2e000000000000000000000000000000000000000000000000000000000000602082015250565b6000612137602283611a63565b9150612142826120db565b604082019050919050565b600060208201905081810360008301526121668161212a565b9050919050565b60006040820190506121826000830185611718565b61218f60208301846117aa565b939250505056fea26469706673582212201f64e38cc5b99d0e1960adb8e69818b9d7024b9301f678d25320fdd2ef3aef4564736f6c634300081100336676677261676e697220627267696a7276206e79207274676366202074687665726874677665776879767765722074687677657262747638",
  "immutableReferences": {},
  "source": "// SPDX-License-Identifier: MIT\n\npragma solidity ^0.8.0;\n\nimport \"./PayContract.sol\"; // Importa la interfaz\nimport \"./PagoContrato.sol\";\n\ncontract Contracts { \n\n    PayContract private payContractInterface;\n    PagoContrato private pagoContratoInstance;\n\n    struct Contract {\n        uint256 id;\n        address contratante;\n        address contratado;\n        address garante;\n        address garante1;\n        address garante2;\n        string descripcion;\n        uint256 date;\n        uint256 monto;\n        bool done ;\n    }\n\n    event ContractCreated(\n        uint256 id,\n        address contratante,\n        address contratado,\n        address garante,\n        address garante1,\n        address garante2,\n        string descripcion,\n        uint256 date,\n        uint256 monto,\n        bool done\n    );\n\n    event ContractReadyToExecute(\n        uint256 id,\n        string descripcion,\n        uint256 monto,\n        address contratante\n    );\n\n    event ContractFrozen(\n        uint256 id\n    );\n\n    event ContractExecuted(\n        uint256 id,\n        string descripcion,\n        uint256 monto,\n        address contratado\n    );\n\n     event TransferToDestinyRequested(uint256 amount, address destination);\n\n    mapping(address => mapping(uint256 => Contract)) public contracts;\n    mapping(address => uint256) public contractsCount;\n    mapping(uint256 => mapping(address => bool)) confirmations;\n\n\n    uint256 constant public confirmationThreshold = 75;\n    uint256 constant public freezeTime = 1 days; // 24 horas\n    uint256 constant public gasPrice = 10 gwei; // El precio del gas se define en gwei\n\n    constructor(address _pagoContratoAddress) {\n        // Asignar la instancia del contrato PagoContrato\n        pagoContratoInstance = PagoContrato(_pagoContratoAddress);\n        \n        createContract(\n            0xF67937fef2855F52043bc7132BC197c5532AC0fe, \n            0xa768eDbE5BE6432f5b93DFC6C06207ed50661aCd, \n            0x437f452c11b3fF5C25FCe320AcE475926a42ccEa, \n            0x300F10877b32b94dDC5A43e506a8182A1C58CD10, \n            0x7A9b1eb9c7Af756ce7a7A3F337e437dB7813C041, \n            \"fvgragnir brgijrv ny rtgcf  thverhtgvewhyvwer thvwerbtv8\", \n            1643769600, // fecha: 2022-02-03 00:00:00\n            0);\n    }\n\n    function createContract(\n        address _contratante,\n        address _contratado,\n        address _garante,\n        address _garante1,\n        address _garante2,\n        string memory _descripcion,\n        uint256 _date,\n        uint256 _monto\n    ) public {\n        uint256 contractCount = contractsCount[msg.sender];\n        contracts[msg.sender][contractCount] = Contract(\n            contractCount,\n            _contratante,\n            _contratado,\n            _garante,\n            _garante1,\n            _garante2,\n            _descripcion,\n            _date,\n            _monto,\n            false\n        );\n        emit ContractCreated(\n            contractCount,\n            _contratante,\n            _contratado,\n            _garante,\n            _garante1,\n            _garante2,\n            _descripcion,\n            _date,\n            _monto,\n            false\n        );\n        contractsCount[msg.sender]++;\n    }\n\n    event ContractDone(\n        uint id,\n        bool done\n    );\n\n    event ContractConfirmed(string message);\n\n  \n\n    function toggleDone(uint _id) public{\n        Contract memory task = contracts[msg.sender][_id];\n        task.done = !task.done;\n        contracts[msg.sender][_id] = task;\n        emit ContractDone(_id, task.done);\n    }\n\n    function confirmContract(uint256 _id) public {\n        require(confirmations[_id][msg.sender] == false, \"Ya has confirmado este contrato.\");\n        confirmations[_id][msg.sender] = true;\n        Contract storage contractData = contracts[msg.sender][_id];\n        uint256 confirmationCount = 0;\n        for (uint256 i = 0; i < 5; i++) {\n            address participant;\n            if (i == 0) {\n                participant = contractData.contratante;\n            } else if (i == 1) {\n                participant = contractData.contratado;\n            } else if (i == 2) {\n                participant = contractData.garante;\n            } else if (i == 3) {\n                participant = contractData.garante1;\n            } else {\n                participant = contractData.garante2;\n            }\n            if (confirmations[_id][participant]) {\n                confirmationCount++;\n            }\n        }\n        if (confirmationCount >= 3) {\n            // Si al menos 3 participantes confirman, se realiza la transferencia\n            // Ejecutar la funcin de transferencia en el contrato PagoContrato\n            payContractInterface.transferirACuentaDestino(contractData.monto, contractData.contratado);\n        \n            // Emitir el evento correspondiente y un mensaje de confirmacin\n            emit ContractConfirmed(\"Contrato confirmado y ejecutado con exito.\");\n        }else{\n            // En caso de que no se alcance el umbral mnimo, transferir a la cuenta contratante\n            payContractInterface.transferirACuentaDestino(contractData.monto, contractData.contratante);\n        \n            // Emitir el evento correspondiente y un mensaje de confirmacin\n            emit ContractConfirmed(\"Contrato confirmado, pero no se ejecuto debido a la falta de confirmaciones suficientes.\");\n        }\n    }\n\n    function isContractFrozen(uint256 _id) public view returns (bool) {\n        Contract storage contractData = contracts[msg.sender][_id];\n        return block.timestamp >= contractData.date && !contractData.done;\n    }\n\n    function compareContractDateAndExecute(uint256 _id) public {\n        uint256 contractDate = contracts[msg.sender][_id].date;\n        uint256 currentTimestamp = block.timestamp;\n\n        if (contractDate == currentTimestamp && !contracts[msg.sender][_id].done) {\n        confirmContract(_id);\n        }\n    }\n\n    /*function verifyAndTransferFunds(uint256 _id) public payable {\n\n        //Cuenta demo\n        address DESTINO = 0x8e4851Bc7be1B37a39Ded606D4442e255bAB423A;\n        \n        Contract storage contractData = contracts[msg.sender][_id];\n        require(!contractData.done, \"El contrato ya esta ejecutado.\");\n        \n        // Calcular el monto total a transferir (monto + 2%)\n        uint256 totalAmount = contractData.monto + (contractData.monto / 50); // 2% del monto\n        \n        // Verificar que el mensaje entrante tenga suficiente Ether\n        require(msg.value >= totalAmount, \"Fondos insuficientes enviados para la transferencia.\");\n        \n        // Transferir Ether a la cuenta de destino\n        payable(DESTINO).transfer(totalAmount);\n\n        // Marcar el contrato como ejecutado\n        contractData.done = true;\n        \n        emit ContractExecuted(_id, contractData.descripcion, totalAmount, contractData.contratado);\n    }*/\n\n    function getContratante() public view returns (address) {\n        return contracts[msg.sender][0].contratante;\n    }\n\n    function getContratado() public view returns (address) {\n        return contracts[msg.sender][0].contratado;\n    }\n\n    function getMonto(uint256 _id) public view returns (uint256) {\n        return contracts[msg.sender][_id].monto;\n    }\n\n    function getDate(uint256 _id) public view returns (uint256) {\n        return contracts[msg.sender][_id].date;\n    }\n\n    function getContractId(address _user, uint256 _index) public view returns (uint256) {\n        require(_index < contractsCount[_user], \"Indice de contrato fuera de rango.\");\n        return contracts[_user][_index].id;\n    }\n\n\n}\n\n",
  "sourcePath": "/home/fidelsalazar/Documentos/TesisDaniela/csolutionextjs/contracts/Contracts.sol",
  "compiler": {
    "name": "solc",
    "version": "0.8.17+commit.8df45f5f.Emscripten.clang"
  },
  "schemaVersion": "3.4.15",
  "updatedAt": "2023-09-15T14:23:19.772Z",
  "networkType": "ethereum",
  "devdoc": {
    "kind": "dev",
    "methods": {},
    "version": 1
  },
  "userdoc": {
    "kind": "user",
    "methods": {},
    "version": 1
  }
}