{
  "contractName": "PagoContrato",
  "abi": [
    {
      "inputs": [
        {
          "internalType": "address",
          "name": "_contratoOriginal",
          "type": "address"
        }
      ],
      "stateMutability": "nonpayable",
      "type": "constructor"
    },
    {
      "inputs": [],
      "name": "CONTRATADO",
      "outputs": [
        {
          "internalType": "address",
          "name": "",
          "type": "address"
        }
      ],
      "stateMutability": "view",
      "type": "function"
    },
    {
      "inputs": [],
      "name": "CONTRATANTE",
      "outputs": [
        {
          "internalType": "address",
          "name": "",
          "type": "address"
        }
      ],
      "stateMutability": "view",
      "type": "function"
    },
    {
      "inputs": [],
      "name": "DESTINO",
      "outputs": [
        {
          "internalType": "address",
          "name": "",
          "type": "address"
        }
      ],
      "stateMutability": "view",
      "type": "function"
    },
    {
      "inputs": [
        {
          "internalType": "uint256",
          "name": "amount",
          "type": "uint256"
        },
        {
          "internalType": "address",
          "name": "destino",
          "type": "address"
        }
      ],
      "name": "transferirACuentaDestino",
      "outputs": [],
      "stateMutability": "nonpayable",
      "type": "function"
    }
  ],
  "bytecode": "0x608060405234801561001057600080fd5b506040516106993803806106998339818101604052810190610032919061027d565b80600260006101000a81548173ffffffffffffffffffffffffffffffffffffffff021916908373ffffffffffffffffffffffffffffffffffffffff160217905550600260009054906101000a900473ffffffffffffffffffffffffffffffffffffffff1673ffffffffffffffffffffffffffffffffffffffff1663797541296040518163ffffffff1660e01b8152600401602060405180830381865afa1580156100e0573d6000803e3d6000fd5b505050506040513d601f19601f82011682018060405250810190610104919061027d565b6000806101000a81548173ffffffffffffffffffffffffffffffffffffffff021916908373ffffffffffffffffffffffffffffffffffffffff160217905550600260009054906101000a900473ffffffffffffffffffffffffffffffffffffffff1673ffffffffffffffffffffffffffffffffffffffff1663eaf1cdfc6040518163ffffffff1660e01b8152600401602060405180830381865afa1580156101b0573d6000803e3d6000fd5b505050506040513d601f19601f820116820180604052508101906101d4919061027d565b600160006101000a81548173ffffffffffffffffffffffffffffffffffffffff021916908373ffffffffffffffffffffffffffffffffffffffff160217905550506102aa565b600080fd5b600073ffffffffffffffffffffffffffffffffffffffff82169050919050565b600061024a8261021f565b9050919050565b61025a8161023f565b811461026557600080fd5b50565b60008151905061027781610251565b92915050565b6000602082840312156102935761029261021a565b5b60006102a184828501610268565b91505092915050565b6103e0806102b96000396000f3fe608060405234801561001057600080fd5b506004361061004c5760003560e01c806329f5e6dc14610051578063d0c81d081461006f578063d6f7d5901461008b578063fc1a5dc1146100a9575b600080fd5b6100596100c7565b6040516100669190610245565b60405180910390f35b610089600480360381019061008491906102c7565b6100eb565b005b6100936101c6565b6040516100a09190610245565b60405180910390f35b6100b16101de565b6040516100be9190610245565b60405180910390f35b60008054906101000a900473ffffffffffffffffffffffffffffffffffffffff1681565b600160009054906101000a900473ffffffffffffffffffffffffffffffffffffffff1673ffffffffffffffffffffffffffffffffffffffff163373ffffffffffffffffffffffffffffffffffffffff161461017b576040517f08c379a00000000000000000000000000000000000000000000000000000000081526004016101729061038a565b60405180910390fd5b8073ffffffffffffffffffffffffffffffffffffffff166108fc839081150290604051600060405180830381858888f193505050501580156101c1573d6000803e3d6000fd5b505050565b738e4851bc7be1b37a39ded606d4442e255bab423a81565b600160009054906101000a900473ffffffffffffffffffffffffffffffffffffffff1681565b600073ffffffffffffffffffffffffffffffffffffffff82169050919050565b600061022f82610204565b9050919050565b61023f81610224565b82525050565b600060208201905061025a6000830184610236565b92915050565b600080fd5b6000819050919050565b61027881610265565b811461028357600080fd5b50565b6000813590506102958161026f565b92915050565b6102a481610224565b81146102af57600080fd5b50565b6000813590506102c18161029b565b92915050565b600080604083850312156102de576102dd610260565b5b60006102ec85828601610286565b92505060206102fd858286016102b2565b9150509250929050565b600082825260208201905092915050565b7f4e6f207469656e6573207065726d69736f2070617261207265616c697a61722060008201527f6573746120616363696f6e000000000000000000000000000000000000000000602082015250565b6000610374602b83610307565b915061037f82610318565b604082019050919050565b600060208201905081810360008301526103a381610367565b905091905056fea26469706673582212207c5095cd08169e18e81079c113df59197b0d1b7aaaba5de79f5f16808d0242f264736f6c63430008110033",
  "immutableReferences": {},
  "source": "// SPDX-License-Identifier: MIT\npragma solidity ^0.8.0;\n\nimport \"./Contracts.sol\";\n\ncontract PagoContrato {\n    address public CONTRATANTE; // direccin del contratante\n    address public CONTRATADO; // direccin del contratado\n    address public constant DESTINO = 0x8e4851Bc7be1B37a39Ded606D4442e255bAB423A; // direccin donde se enviar el pago\n\n    Contracts private contratoOriginal; // contrato original del que se tomarn los valores\n\n    constructor(address _contratoOriginal) {\n        contratoOriginal = Contracts(_contratoOriginal);\n        CONTRATANTE = contratoOriginal.getContratante();\n        CONTRATADO = contratoOriginal.getContratado();\n    }\n\n    function transferirACuentaDestino(uint256 amount, address destino) external {\n        require(msg.sender == CONTRATADO, \"No tienes permiso para realizar esta accion\");\n        payable(destino).transfer(amount);\n    }\n}\n\n\n",
  "sourcePath": "/home/fidelsalazar/Documentos/TesisDaniela/csolutionextjs/contracts/PagoContrato.sol",
  "compiler": {
    "name": "solc",
    "version": "0.8.17+commit.8df45f5f.Emscripten.clang"
  },
  "schemaVersion": "3.4.15",
  "updatedAt": "2023-08-31T17:09:42.404Z",
  "devdoc": {
    "kind": "dev",
    "methods": {},
    "version": 1
  },
  "userdoc": {
    "kind": "user",
    "methods": {},
    "version": 1
  }
}