{
  "contractName": "Timer",
  "abi": [
    {
      "inputs": [
        {
          "internalType": "uint256",
          "name": "interval",
          "type": "uint256"
        }
      ],
      "name": "startTimer",
      "outputs": [],
      "stateMutability": "nonpayable",
      "type": "function"
    },
    {
      "inputs": [
        {
          "internalType": "uint256",
          "name": "timerId",
          "type": "uint256"
        }
      ],
      "name": "execute",
      "outputs": [
        {
          "internalType": "bool",
          "name": "",
          "type": "bool"
        }
      ],
      "stateMutability": "nonpayable",
      "type": "function"
    }
  ],
  "bytecode": "0x608060405234801561001057600080fd5b50610335806100206000396000f3fe608060405234801561001057600080fd5b50600436106100365760003560e01c80636cf331fa1461003b578063fe0d94c114610057575b600080fd5b610055600480360381019061005091906101bc565b610087565b005b610071600480360381019061006c91906101bc565b6100c0565b60405161007e9190610204565b60405180910390f35b610091600061015d565b804261009d919061024e565b600160006100ab6000610173565b81526020019081526020016000208190555050565b600080600160008481526020019081526020016000205411610117576040517f08c379a000000000000000000000000000000000000000000000000000000000815260040161010e906102df565b60405180910390fd5b60016000838152602001908152602001600020544210610153576000600160008481526020019081526020016000208190555060019050610158565b600090505b919050565b6001816000016000828254019250508190555050565b600081600001549050919050565b600080fd5b6000819050919050565b61019981610186565b81146101a457600080fd5b50565b6000813590506101b681610190565b92915050565b6000602082840312156101d2576101d1610181565b5b60006101e0848285016101a7565b91505092915050565b60008115159050919050565b6101fe816101e9565b82525050565b600060208201905061021960008301846101f5565b92915050565b7f4e487b7100000000000000000000000000000000000000000000000000000000600052601160045260246000fd5b600061025982610186565b915061026483610186565b925082820190508082111561027c5761027b61021f565b5b92915050565b600082825260208201905092915050565b7f54696d6572206e6f7420666f756e64206f722065787069726564000000000000600082015250565b60006102c9601a83610282565b91506102d482610293565b602082019050919050565b600060208201905081810360008301526102f8816102bc565b905091905056fea2646970667358221220c6b06f612a86eb6093ec30c2ee2de1f3d1e087a5215f6cb9ac1fbc38be88dd8f64736f6c63430008110033",
  "immutableReferences": {},
  "source": "// SPDX-License-Identifier: MIT\npragma solidity ^0.8.0;\n\nimport \"@openzeppelin/contracts/access/Ownable.sol\";\nimport \"@openzeppelin/contracts/utils/Counters.sol\";\n\nimport \"./Contracts.sol\";\n\ncontract Timer {\n    using Counters for Counters.Counter;\n    Counters.Counter private _timerId;\n\n    mapping(uint256 => uint256) private _executions;\n\n    function startTimer(uint256 interval) external {\n        _timerId.increment();\n        _executions[_timerId.current()] = block.timestamp + interval;\n    }\n\n    function execute(uint256 timerId) external returns (bool) {\n        require(_executions[timerId] > 0, \"Timer not found or expired\");\n        if (block.timestamp >= _executions[timerId]) {\n            _executions[timerId] = 0;\n            return true;\n        }\n        return false;\n    }\n}\n\n\ncontract AutomaticExecutor is Ownable {\n\n    Contracts public contratoOriginal;\n\n    Timer private _timer;\n    Counters.Counter private _timerId;\n\n    uint256 private _interval = 1 days; // Intervalo de 1 da\n\n    constructor(address timerAddress) {\n        _timer = Timer(timerAddress);\n        _timerId._value = 1; // Inicializar el contador _timerId en 0\n    }\n\n    function setTimerInterval(uint256 interval) external onlyOwner {\n        _interval = interval;\n    }\n\n    function startAutomaticExecution() external onlyOwner {\n        _timer.startTimer(_interval);\n    }\n\n    function checkAndExecute() external onlyOwner {\n        bool executed = _timer.execute(_timerId._value);\n        if (executed) {\n            contratoOriginal.compareContractDateAndExecute(_timerId._value);\n        }\n    }\n}\n\n\n",
  "sourcePath": "/home/fidelsalazar/Documentos/TesisDaniela/csolutionextjs/contracts/TimedFunctionCaller.sol",
  "compiler": {
    "name": "solc",
    "version": "0.8.17+commit.8df45f5f.Emscripten.clang"
  },
  "schemaVersion": "3.4.15",
  "updatedAt": "2023-08-31T17:09:42.410Z",
  "devdoc": {
    "kind": "dev",
    "methods": {},
    "version": 1
  },
  "userdoc": {
    "kind": "user",
    "methods": {},
    "version": 1
  }
}